:020000020000FC
:0200000004C03A
:02000400F6C044
:10000800FDC01FEF45E01AB914B915B917B918B9E9
:100018001BB91AE01093690013E01DBB789478D0DF
:100028000930B1F400E04530C9F440E05930E1F45A
:1000380050E06530F9F460E0793021F570E0813006
:1000480039F580E0A03051F1A130D9F0A230C1F0EB
:100058000395A03019F1A130A1F099C04395A030C3
:10006800E9F0A130C1F193C05395A030B9F0A130A7
:1000780091F18DC06395A03089F0A13061F187C0FE
:1000880086C029C07395A03049F0A13021F17FC006
:100098008395A03019F0A130F1F079C0902F2A98FB
:1000A800299A2B982C983FD033D0942F2A9A2998A4
:1000B8002B982C9838D02CD0952F2A9829982C98A2
:1000C8002B9A31D025D0962F2A9829982C9A2B989C
:1000D8002AD01ED0A4CF952F2A98299A2B982C98ED
:1000E80022D016D0962F2A9A29982B982C981BD074
:1000F8000FD0972F2A9829982C982B9A14D008D08B
:10010800982F2A9829982C9A2B980DD001D087CF10
:1001180030E11A951030E9F72A952030D1F73A9551
:100128003030B9F708959030A9F09130A9F09230A5
:10013800A9F09330A9F09430A9F09530A9F0963041
:10014800A9F09730A9F09830A9F09930A9F096E075
:1001580014C065CF10E411C019E70FC014E20DC038
:1001680010E30BC019E109C012E107C012E005C095
:1001780018E703C010E001C018E118B90895B39555
:1001880017C0C39515C0D39513C0E39511C0C0DF40
:10019800A230F9F6F13061F0B93089F7B0E0C53036
:1001A80081F7C0E0D93079F7D0E0E53071F7E0E0C9
:1001B8009B2F2A98299A2B982C98B5DFA9DF9C2F7A
:1001C8002A9A29982B982C98AEDFA2DF9D2F2A987F
:1001D80029982C982B9AA7DF9BDF9E2F2A9829987D
:1001E8002C9A2B98A0DF94DF1ACFF894A23019F03C
:1001F800A39578941895A0E078941895F894F13020
:1002080019F0F39578941895F0E0B0E0C0E0D0E0EC
:06021800E0E07894189567
:00000001FF
