:020000020000FC
:0200000004C03A
:02000400FCC03E
:1000080003C1B1E01FEF41E01AB914B915B917B926
:1000180018B91BB91AE01093690013E01DBB789456
:10002800B030A9F1F8D00930A1F400E04530B1F4BE
:1000380040E05930C1F450E06530D1F460E07930E7
:10004800E1F470E08130F1F480E0A03009F1A130F2
:10005800D1F10395A030E1F0A130A9F14395A0308A
:10006800B9F0A13081F15395A03091F0A13059F148
:100078006395A03069F0A13031F17395A03041F05B
:10008800A13009F18395A03019F0A130E1F038C012
:10009800A130C9F0902F2A98299A2B982C983CD0F7
:1000A800942F2A9A29982B982C9836D0952F2A98ED
:1000B80029982C982B9A30D0962F2A9829982C9AE0
:1000C8002B982AD00895952F2A98299A2B982C98FE
:1000D80023D017D0962F2A9A29982B982C981CD081
:1000E80010D0972F2A9829982C982B9A15D009D098
:1000F800982F2A9829982C9A2B980ED002D00895D8
:1001080023C034E01A951030E9F72A952030D1F74A
:100118003A953030B9F708959030C1F09130C9F070
:100128009230D1F09330D9F09430E1F09530E9F085
:100138009630F1F09730F9F0983001F1993009F1E3
:1001480096E021C0A5CFBFCF3FC06ACF10E4289A60
:100158001AC019E7289A17C014E2289814C010E3A7
:10016800289811C019E128980EC012E128980BC0F0
:1001780012E0289808C018E7289A05C010E02898C7
:1001880002C018E1289818B908950A95A030D1F24C
:10019800A130C9F24A95A030A9F2A130A1F25A952E
:1001A800A03081F2A13079F26A95A03059F2A130DD
:1001B80051F27A95A03031F2A13029F28A95A03017
:1001C80009F2A13001F2C0CFB130E9F324D00030F8
:1001D800E1F609E04030F1F646E0503001F759E029
:1001E800603011F766E0703021F779E0803031F740
:1001F80089E0B030E9CFF894A13019F0A39578944C
:100208001895A0E078941895F894B03011F0B0E003
:100218001895B1E018951FE02AEF30E439DF3A95D8
:10022800E9F736DF2A95C9F733DF1A95A9F7B03011
:0402380051F2F6CEBB
:00000001FF
