:020000020000FC
:0200000004C03A
:0200040007C132
:100008000EC100E040E050E060E070E080E0B1E068
:100018001FEF50E01AB914B915B917B918B91BB9B7
:100028001AE01093690013E01DBB7894B030A9F171
:1000380074D00930A1F400E04530B1F440E0593003
:10004800C1F450E06530D1F460E07930E1F470E05B
:100058008130F1F480E0A03009F1A130F1F103958D
:10006800A030E1F0A130C9F14395A030B9F0A1303A
:10007800A1F15395A03091F0A13079F16395A030AA
:1000880069F0A13051F17395A03041F0A13029F108
:100098008395A03019F0A13001F13EC0902F2A9A23
:1000A80029982B9A2C9A44D038D0942F2A98299A98
:1000B8002B9A2C9A3DD031D0952F2A9A299A2C9A8E
:1000C8002B9836D02AD0962F2A9A299A2C982B9A90
:1000D8002FD023D0B03001F1A9CF952F2A9A299893
:1000E8002B9A2C9A25D019D0962F2A98299A2B9A90
:1000F8002C9A1ED012D0972F2A9A299A2C9A2B988C
:1001080017D00BD0982F2A9A299A2C982B9A10D06E
:1001180004D0B03029F18ACF23C03CE01A951030C2
:10012800E9F72A952030D1F73A953030B9F7089594
:100138009030C1F09130C9F09230D1F09330D9F0BD
:100148009430E1F09530E9F09630F1F09730F9F01D
:10015800983001F1993009F196E021C09FCFBDCFC9
:100168003EC064CF1FE328981AC016E0289817C02D
:100178001BE5289A14C01FE4289A11C016E6289A8D
:100188000EC01DE6289A0BC01DE7289A08C017E084
:10019800289805C01FE7289A02C01FE6289A18B9B0
:1001A80008950A95A030D1F2A130C9F24A95A0303D
:1001B800A9F2A130A1F25A95A03081F2A13079F2CA
:1001C8006A95A03059F2A13051F27A95A03031F2F7
:1001D800A13029F28A95A03009F2A13001F2B1309C
:1001E80001F29BDF0030E9F609E04030F9F645E01E
:1001F800503009F759E0603019F765E0703029F799
:1002080079E0803039F789E0B030E9CFF894A1304F
:1002180019F0A39578941895A0E078941895F89417
:0C022800B03011F0B0E01895B1E018956E
:00000001FF
